{
  "_format": "hh-sol-artifact-1",
  "contractName": "CarbonPathToken",
  "sourceName": "contracts/CarbonPathToken.sol",
  "abi": [
    {
      "inputs": [
        {
          "internalType": "string",
          "name": "_name",
          "type": "string"
        },
        {
          "internalType": "string",
          "name": "_symbol",
          "type": "string"
        }
      ],
      "stateMutability": "nonpayable",
      "type": "constructor"
    },
    {
      "anonymous": false,
      "inputs": [
        {
          "indexed": true,
          "internalType": "address",
          "name": "owner",
          "type": "address"
        },
        {
          "indexed": true,
          "internalType": "address",
          "name": "spender",
          "type": "address"
        },
        {
          "indexed": false,
          "internalType": "uint256",
          "name": "value",
          "type": "uint256"
        }
      ],
      "name": "Approval",
      "type": "event"
    },
    {
      "anonymous": false,
      "inputs": [
        {
          "indexed": false,
          "internalType": "address",
          "name": "account",
          "type": "address"
        }
      ],
      "name": "Paused",
      "type": "event"
    },
    {
      "anonymous": false,
      "inputs": [
        {
          "indexed": true,
          "internalType": "bytes32",
          "name": "role",
          "type": "bytes32"
        },
        {
          "indexed": true,
          "internalType": "bytes32",
          "name": "previousAdminRole",
          "type": "bytes32"
        },
        {
          "indexed": true,
          "internalType": "bytes32",
          "name": "newAdminRole",
          "type": "bytes32"
        }
      ],
      "name": "RoleAdminChanged",
      "type": "event"
    },
    {
      "anonymous": false,
      "inputs": [
        {
          "indexed": true,
          "internalType": "bytes32",
          "name": "role",
          "type": "bytes32"
        },
        {
          "indexed": true,
          "internalType": "address",
          "name": "account",
          "type": "address"
        },
        {
          "indexed": true,
          "internalType": "address",
          "name": "sender",
          "type": "address"
        }
      ],
      "name": "RoleGranted",
      "type": "event"
    },
    {
      "anonymous": false,
      "inputs": [
        {
          "indexed": true,
          "internalType": "bytes32",
          "name": "role",
          "type": "bytes32"
        },
        {
          "indexed": true,
          "internalType": "address",
          "name": "account",
          "type": "address"
        },
        {
          "indexed": true,
          "internalType": "address",
          "name": "sender",
          "type": "address"
        }
      ],
      "name": "RoleRevoked",
      "type": "event"
    },
    {
      "anonymous": false,
      "inputs": [
        {
          "indexed": true,
          "internalType": "address",
          "name": "from",
          "type": "address"
        },
        {
          "indexed": true,
          "internalType": "address",
          "name": "to",
          "type": "address"
        },
        {
          "indexed": false,
          "internalType": "uint256",
          "name": "value",
          "type": "uint256"
        }
      ],
      "name": "Transfer",
      "type": "event"
    },
    {
      "anonymous": false,
      "inputs": [
        {
          "indexed": false,
          "internalType": "address",
          "name": "account",
          "type": "address"
        }
      ],
      "name": "Unpaused",
      "type": "event"
    },
    {
      "inputs": [],
      "name": "DEFAULT_ADMIN_ROLE",
      "outputs": [
        {
          "internalType": "bytes32",
          "name": "",
          "type": "bytes32"
        }
      ],
      "stateMutability": "view",
      "type": "function"
    },
    {
      "inputs": [
        {
          "internalType": "address",
          "name": "owner",
          "type": "address"
        },
        {
          "internalType": "address",
          "name": "spender",
          "type": "address"
        }
      ],
      "name": "allowance",
      "outputs": [
        {
          "internalType": "uint256",
          "name": "",
          "type": "uint256"
        }
      ],
      "stateMutability": "view",
      "type": "function"
    },
    {
      "inputs": [
        {
          "internalType": "address",
          "name": "spender",
          "type": "address"
        },
        {
          "internalType": "uint256",
          "name": "amount",
          "type": "uint256"
        }
      ],
      "name": "approve",
      "outputs": [
        {
          "internalType": "bool",
          "name": "",
          "type": "bool"
        }
      ],
      "stateMutability": "nonpayable",
      "type": "function"
    },
    {
      "inputs": [
        {
          "internalType": "address",
          "name": "account",
          "type": "address"
        }
      ],
      "name": "balanceOf",
      "outputs": [
        {
          "internalType": "uint256",
          "name": "",
          "type": "uint256"
        }
      ],
      "stateMutability": "view",
      "type": "function"
    },
    {
      "inputs": [
        {
          "internalType": "uint256",
          "name": "amount",
          "type": "uint256"
        }
      ],
      "name": "burn",
      "outputs": [],
      "stateMutability": "nonpayable",
      "type": "function"
    },
    {
      "inputs": [
        {
          "internalType": "address",
          "name": "account",
          "type": "address"
        },
        {
          "internalType": "uint256",
          "name": "amount",
          "type": "uint256"
        }
      ],
      "name": "burnFrom",
      "outputs": [],
      "stateMutability": "nonpayable",
      "type": "function"
    },
    {
      "inputs": [],
      "name": "decimals",
      "outputs": [
        {
          "internalType": "uint8",
          "name": "",
          "type": "uint8"
        }
      ],
      "stateMutability": "view",
      "type": "function"
    },
    {
      "inputs": [
        {
          "internalType": "address",
          "name": "spender",
          "type": "address"
        },
        {
          "internalType": "uint256",
          "name": "subtractedValue",
          "type": "uint256"
        }
      ],
      "name": "decreaseAllowance",
      "outputs": [
        {
          "internalType": "bool",
          "name": "",
          "type": "bool"
        }
      ],
      "stateMutability": "nonpayable",
      "type": "function"
    },
    {
      "inputs": [
        {
          "internalType": "bytes32",
          "name": "role",
          "type": "bytes32"
        }
      ],
      "name": "getRoleAdmin",
      "outputs": [
        {
          "internalType": "bytes32",
          "name": "",
          "type": "bytes32"
        }
      ],
      "stateMutability": "view",
      "type": "function"
    },
    {
      "inputs": [
        {
          "internalType": "address",
          "name": "account",
          "type": "address"
        }
      ],
      "name": "grantMinter",
      "outputs": [],
      "stateMutability": "nonpayable",
      "type": "function"
    },
    {
      "inputs": [
        {
          "internalType": "bytes32",
          "name": "role",
          "type": "bytes32"
        },
        {
          "internalType": "address",
          "name": "account",
          "type": "address"
        }
      ],
      "name": "grantRole",
      "outputs": [],
      "stateMutability": "nonpayable",
      "type": "function"
    },
    {
      "inputs": [
        {
          "internalType": "bytes32",
          "name": "role",
          "type": "bytes32"
        },
        {
          "internalType": "address",
          "name": "account",
          "type": "address"
        }
      ],
      "name": "hasRole",
      "outputs": [
        {
          "internalType": "bool",
          "name": "",
          "type": "bool"
        }
      ],
      "stateMutability": "view",
      "type": "function"
    },
    {
      "inputs": [
        {
          "internalType": "address",
          "name": "spender",
          "type": "address"
        },
        {
          "internalType": "uint256",
          "name": "addedValue",
          "type": "uint256"
        }
      ],
      "name": "increaseAllowance",
      "outputs": [
        {
          "internalType": "bool",
          "name": "",
          "type": "bool"
        }
      ],
      "stateMutability": "nonpayable",
      "type": "function"
    },
    {
      "inputs": [
        {
          "internalType": "address",
          "name": "account",
          "type": "address"
        },
        {
          "internalType": "uint256",
          "name": "amount",
          "type": "uint256"
        }
      ],
      "name": "mint",
      "outputs": [],
      "stateMutability": "nonpayable",
      "type": "function"
    },
    {
      "inputs": [],
      "name": "name",
      "outputs": [
        {
          "internalType": "string",
          "name": "",
          "type": "string"
        }
      ],
      "stateMutability": "view",
      "type": "function"
    },
    {
      "inputs": [],
      "name": "paused",
      "outputs": [
        {
          "internalType": "bool",
          "name": "",
          "type": "bool"
        }
      ],
      "stateMutability": "view",
      "type": "function"
    },
    {
      "inputs": [
        {
          "internalType": "bytes32",
          "name": "role",
          "type": "bytes32"
        },
        {
          "internalType": "address",
          "name": "account",
          "type": "address"
        }
      ],
      "name": "renounceRole",
      "outputs": [],
      "stateMutability": "nonpayable",
      "type": "function"
    },
    {
      "inputs": [
        {
          "internalType": "address",
          "name": "account",
          "type": "address"
        }
      ],
      "name": "revokeMinter",
      "outputs": [],
      "stateMutability": "nonpayable",
      "type": "function"
    },
    {
      "inputs": [
        {
          "internalType": "bytes32",
          "name": "role",
          "type": "bytes32"
        },
        {
          "internalType": "address",
          "name": "account",
          "type": "address"
        }
      ],
      "name": "revokeRole",
      "outputs": [],
      "stateMutability": "nonpayable",
      "type": "function"
    },
    {
      "inputs": [
        {
          "internalType": "bytes4",
          "name": "interfaceId",
          "type": "bytes4"
        }
      ],
      "name": "supportsInterface",
      "outputs": [
        {
          "internalType": "bool",
          "name": "",
          "type": "bool"
        }
      ],
      "stateMutability": "view",
      "type": "function"
    },
    {
      "inputs": [],
      "name": "symbol",
      "outputs": [
        {
          "internalType": "string",
          "name": "",
          "type": "string"
        }
      ],
      "stateMutability": "view",
      "type": "function"
    },
    {
      "inputs": [],
      "name": "totalSupply",
      "outputs": [
        {
          "internalType": "uint256",
          "name": "",
          "type": "uint256"
        }
      ],
      "stateMutability": "view",
      "type": "function"
    },
    {
      "inputs": [
        {
          "internalType": "address",
          "name": "to",
          "type": "address"
        },
        {
          "internalType": "uint256",
          "name": "amount",
          "type": "uint256"
        }
      ],
      "name": "transfer",
      "outputs": [
        {
          "internalType": "bool",
          "name": "",
          "type": "bool"
        }
      ],
      "stateMutability": "nonpayable",
      "type": "function"
    },
    {
      "inputs": [
        {
          "internalType": "address",
          "name": "from",
          "type": "address"
        },
        {
          "internalType": "address",
          "name": "to",
          "type": "address"
        },
        {
          "internalType": "uint256",
          "name": "amount",
          "type": "uint256"
        }
      ],
      "name": "transferFrom",
      "outputs": [
        {
          "internalType": "bool",
          "name": "",
          "type": "bool"
        }
      ],
      "stateMutability": "nonpayable",
      "type": "function"
    }
  ],
  "bytecode": "0x60806040523480156200001157600080fd5b50604051620017df380380620017df833981016040819052620000349162000209565b6001805460ff19169055818160056200004e838262000302565b5060066200005d828262000302565b506200006f91506000905033620000a3565b6200009b7f9f2df0fed2c77648de5860a4cc508cd0818c85b8b8a1ab4ceeef8d981c8956a633620000a3565b5050620003ce565b6000828152602081815260408083206001600160a01b038516845290915290205460ff1662000140576000828152602081815260408083206001600160a01b03851684529091529020805460ff19166001179055620000ff3390565b6001600160a01b0316816001600160a01b0316837f2f8788117e7eff1d82e926ec794901d17c78024a50270940304540a733656f0d60405160405180910390a45b5050565b634e487b7160e01b600052604160045260246000fd5b600082601f8301126200016c57600080fd5b81516001600160401b038082111562000189576200018962000144565b604051601f8301601f19908116603f01168101908282118183101715620001b457620001b462000144565b81604052838152602092508683858801011115620001d157600080fd5b600091505b83821015620001f55785820183015181830184015290820190620001d6565b600093810190920192909252949350505050565b600080604083850312156200021d57600080fd5b82516001600160401b03808211156200023557600080fd5b62000243868387016200015a565b935060208501519150808211156200025a57600080fd5b5062000269858286016200015a565b9150509250929050565b600181811c908216806200028857607f821691505b602082108103620002a957634e487b7160e01b600052602260045260246000fd5b50919050565b601f821115620002fd57600081815260208120601f850160051c81016020861015620002d85750805b601f850160051c820191505b81811015620002f957828155600101620002e4565b5050505b505050565b81516001600160401b038111156200031e576200031e62000144565b62000336816200032f845462000273565b84620002af565b602080601f8311600181146200036e5760008415620003555750858301515b600019600386901b1c1916600185901b178555620002f9565b600085815260208120601f198616915b828110156200039f578886015182559484019460019091019084016200037e565b5085821015620003be5787850151600019600388901b60f8161c191681555b5050505050600190811b01905550565b61140180620003de6000396000f3fe608060405234801561001057600080fd5b50600436106101585760003560e01c806342966c68116100c3578063a217fddf1161007c578063a217fddf146102da578063a457c2d7146102e2578063a9059cbb146102f5578063cfbd488514610308578063d547741f1461031b578063dd62ed3e1461032e57600080fd5b806342966c68146102655780635c975abb1461027857806370a082311461028357806379cc6790146102ac57806391d14854146102bf57806395d89b41146102d257600080fd5b8063261707fa11610115578063261707fa146101f55780632f2ff15d1461020a578063313ce5671461021d57806336568abe1461022c578063395093511461023f57806340c10f191461025257600080fd5b806301ffc9a71461015d57806306fdde0314610185578063095ea7b31461019a57806318160ddd146101ad57806323b872dd146101bf578063248a9ca3146101d2575b600080fd5b61017061016b36600461104a565b610341565b60405190151581526020015b60405180910390f35b61018d610378565b60405161017c9190611098565b6101706101a83660046110e7565b61040a565b6004545b60405190815260200161017c565b6101706101cd366004611111565b610422565b6101b16101e036600461114d565b60009081526020819052604090206001015490565b610208610203366004611166565b610446565b005b610208610218366004611181565b610491565b6040516000815260200161017c565b61020861023a366004611181565b6104bb565b61017061024d3660046110e7565b610539565b6102086102603660046110e7565b61055b565b61020861027336600461114d565b6105e0565b60015460ff16610170565b6101b1610291366004611166565b6001600160a01b031660009081526002602052604090205490565b6102086102ba3660046110e7565b61061e565b6101706102cd366004611181565b610667565b61018d610690565b6101b1600081565b6101706102f03660046110e7565b61069f565b6101706103033660046110e7565b61071a565b610208610316366004611166565b610728565b610208610329366004611181565b610767565b6101b161033c3660046111ad565b61078c565b60006001600160e01b03198216637965db0b60e01b148061037257506301ffc9a760e01b6001600160e01b03198316145b92915050565b606060058054610387906111d7565b80601f01602080910402602001604051908101604052809291908181526020018280546103b3906111d7565b80156104005780601f106103d557610100808354040283529160200191610400565b820191906000526020600020905b8154815290600101906020018083116103e357829003601f168201915b5050505050905090565b6000336104188185856107b7565b5060019392505050565b6000336104308582856108db565b61043b858585610955565b506001949350505050565b610451600033610667565b6104765760405162461bcd60e51b815260040161046d90611211565b60405180910390fd5b61048e6000805160206113ac83398151915282610b23565b50565b6000828152602081905260409020600101546104ac81610ba7565b6104b68383610b23565b505050565b6001600160a01b038116331461052b5760405162461bcd60e51b815260206004820152602f60248201527f416363657373436f6e74726f6c3a2063616e206f6e6c792072656e6f756e636560448201526e103937b632b9903337b91039b2b63360891b606482015260840161046d565b6105358282610bb1565b5050565b60003361041881858561054c838361078c565b6105569190611268565b6107b7565b6105736000805160206113ac83398151915233610667565b6105d65760405162461bcd60e51b815260206004820152602e60248201527f436172626f6e50617468546f6b656e3a206d7573742068617665206d696e746560448201526d1c881c9bdb19481d1bc81b5a5b9d60921b606482015260840161046d565b6105358282610c16565b6105f86000805160206113ac83398151915233610667565b6106145760405162461bcd60e51b815260040161046d9061127b565b61048e3382610cf5565b6106366000805160206113ac83398151915233610667565b6106525760405162461bcd60e51b815260040161046d9061127b565b61065d8233836108db565b6105358282610cf5565b6000918252602082815260408084206001600160a01b0393909316845291905290205460ff1690565b606060068054610387906111d7565b600033816106ad828661078c565b90508381101561070d5760405162461bcd60e51b815260206004820152602560248201527f45524332303a2064656372656173656420616c6c6f77616e63652062656c6f77604482015264207a65726f60d81b606482015260840161046d565b61043b82868684036107b7565b600033610418818585610955565b610733600033610667565b61074f5760405162461bcd60e51b815260040161046d90611211565b61048e6000805160206113ac83398151915282610bb1565b60008281526020819052604090206001015461078281610ba7565b6104b68383610bb1565b6001600160a01b03918216600090815260036020908152604080832093909416825291909152205490565b6001600160a01b0383166108195760405162461bcd60e51b8152602060048201526024808201527f45524332303a20617070726f76652066726f6d20746865207a65726f206164646044820152637265737360e01b606482015260840161046d565b6001600160a01b03821661087a5760405162461bcd60e51b815260206004820152602260248201527f45524332303a20617070726f766520746f20746865207a65726f206164647265604482015261737360f01b606482015260840161046d565b6001600160a01b0383811660008181526003602090815260408083209487168084529482529182902085905590518481527f8c5be1e5ebec7d5bd14f71427d1e84f3dd0314c0f7b2291e5b200ac8c7c3b925910160405180910390a3505050565b60006108e7848461078c565b9050600019811461094f57818110156109425760405162461bcd60e51b815260206004820152601d60248201527f45524332303a20696e73756666696369656e7420616c6c6f77616e6365000000604482015260640161046d565b61094f84848484036107b7565b50505050565b6001600160a01b0383166109b95760405162461bcd60e51b815260206004820152602560248201527f45524332303a207472616e736665722066726f6d20746865207a65726f206164604482015264647265737360d81b606482015260840161046d565b6001600160a01b038216610a1b5760405162461bcd60e51b815260206004820152602360248201527f45524332303a207472616e7366657220746f20746865207a65726f206164647260448201526265737360e81b606482015260840161046d565b6001600160a01b03831660009081526002602052604090205481811015610a935760405162461bcd60e51b815260206004820152602660248201527f45524332303a207472616e7366657220616d6f756e7420657863656564732062604482015265616c616e636560d01b606482015260840161046d565b6001600160a01b03808516600090815260026020526040808220858503905591851681529081208054849290610aca908490611268565b92505081905550826001600160a01b0316846001600160a01b03167fddf252ad1be2c89b69c2b068fc378daa952ba7f163c4a11628f55a4df523b3ef84604051610b1691815260200190565b60405180910390a361094f565b610b2d8282610667565b610535576000828152602081815260408083206001600160a01b03851684529091529020805460ff19166001179055610b633390565b6001600160a01b0316816001600160a01b0316837f2f8788117e7eff1d82e926ec794901d17c78024a50270940304540a733656f0d60405160405180910390a45050565b61048e8133610e43565b610bbb8282610667565b15610535576000828152602081815260408083206001600160a01b0385168085529252808320805460ff1916905551339285917ff6391f5c32d9c69d2a47ea670b442974b53935d1edc7fd64eb21e047a839171b9190a45050565b6001600160a01b038216610c6c5760405162461bcd60e51b815260206004820152601f60248201527f45524332303a206d696e7420746f20746865207a65726f206164647265737300604482015260640161046d565b8060046000828254610c7e9190611268565b90915550506001600160a01b03821660009081526002602052604081208054839290610cab908490611268565b90915550506040518181526001600160a01b038316906000907fddf252ad1be2c89b69c2b068fc378daa952ba7f163c4a11628f55a4df523b3ef9060200160405180910390a35050565b6001600160a01b038216610d555760405162461bcd60e51b815260206004820152602160248201527f45524332303a206275726e2066726f6d20746865207a65726f206164647265736044820152607360f81b606482015260840161046d565b6001600160a01b03821660009081526002602052604090205481811015610dc95760405162461bcd60e51b815260206004820152602260248201527f45524332303a206275726e20616d6f756e7420657863656564732062616c616e604482015261636560f01b606482015260840161046d565b6001600160a01b0383166000908152600260205260408120838303905560048054849290610df89084906112c9565b90915550506040518281526000906001600160a01b038516907fddf252ad1be2c89b69c2b068fc378daa952ba7f163c4a11628f55a4df523b3ef9060200160405180910390a3505050565b610e4d8282610667565b61053557610e65816001600160a01b03166014610ea7565b610e70836020610ea7565b604051602001610e819291906112dc565b60408051601f198184030181529082905262461bcd60e51b825261046d91600401611098565b60606000610eb6836002611351565b610ec1906002611268565b67ffffffffffffffff811115610ed957610ed9611368565b6040519080825280601f01601f191660200182016040528015610f03576020820181803683370190505b509050600360fc1b81600081518110610f1e57610f1e61137e565b60200101906001600160f81b031916908160001a905350600f60fb1b81600181518110610f4d57610f4d61137e565b60200101906001600160f81b031916908160001a9053506000610f71846002611351565b610f7c906001611268565b90505b6001811115610ff4576f181899199a1a9b1b9c1cb0b131b232b360811b85600f1660108110610fb057610fb061137e565b1a60f81b828281518110610fc657610fc661137e565b60200101906001600160f81b031916908160001a90535060049490941c93610fed81611394565b9050610f7f565b5083156110435760405162461bcd60e51b815260206004820181905260248201527f537472696e67733a20686578206c656e67746820696e73756666696369656e74604482015260640161046d565b9392505050565b60006020828403121561105c57600080fd5b81356001600160e01b03198116811461104357600080fd5b60005b8381101561108f578181015183820152602001611077565b50506000910152565b60208152600082518060208401526110b7816040850160208701611074565b601f01601f19169190910160400192915050565b80356001600160a01b03811681146110e257600080fd5b919050565b600080604083850312156110fa57600080fd5b611103836110cb565b946020939093013593505050565b60008060006060848603121561112657600080fd5b61112f846110cb565b925061113d602085016110cb565b9150604084013590509250925092565b60006020828403121561115f57600080fd5b5035919050565b60006020828403121561117857600080fd5b611043826110cb565b6000806040838503121561119457600080fd5b823591506111a4602084016110cb565b90509250929050565b600080604083850312156111c057600080fd5b6111c9836110cb565b91506111a4602084016110cb565b600181811c908216806111eb57607f821691505b60208210810361120b57634e487b7160e01b600052602260045260246000fd5b50919050565b60208082526021908201527f436172626f6e50617468546f6b656e3a206d75737420626520616e2061646d696040820152603760f91b606082015260800190565b634e487b7160e01b600052601160045260246000fd5b8082018082111561037257610372611252565b6020808252602e908201527f436172626f6e50617468546f6b656e3a206d7573742068617665206d696e746560408201526d39103937b632903a3790313ab93760911b606082015260800190565b8181038181111561037257610372611252565b7f416363657373436f6e74726f6c3a206163636f756e7420000000000000000000815260008351611314816017850160208801611074565b7001034b99036b4b9b9b4b733903937b6329607d1b6017918401918201528351611345816028840160208801611074565b01602801949350505050565b808202811582820484141761037257610372611252565b634e487b7160e01b600052604160045260246000fd5b634e487b7160e01b600052603260045260246000fd5b6000816113a3576113a3611252565b50600019019056fe9f2df0fed2c77648de5860a4cc508cd0818c85b8b8a1ab4ceeef8d981c8956a6a26469706673582212204fd502fe5a9230b484c00670ad5b9af6c91d3e48da44bf7b6adf2a6c76573cd764736f6c63430008110033",
  "linkReferences": {},
  "deployedLinkReferences": {}
}