{
  "_format": "hh-sol-artifact-1",
  "contractName": "CarbonPathNFT",
  "sourceName": "contracts/CarbonPathNFT.sol",
  "abi": [
    {
      "inputs": [
        {
          "internalType": "address",
          "name": "adminAddress",
          "type": "address"
        }
      ],
      "stateMutability": "nonpayable",
      "type": "constructor"
    },
    {
      "anonymous": false,
      "inputs": [
        {
          "indexed": true,
          "internalType": "address",
          "name": "owner",
          "type": "address"
        },
        {
          "indexed": true,
          "internalType": "address",
          "name": "approved",
          "type": "address"
        },
        {
          "indexed": true,
          "internalType": "uint256",
          "name": "tokenId",
          "type": "uint256"
        }
      ],
      "name": "Approval",
      "type": "event"
    },
    {
      "anonymous": false,
      "inputs": [
        {
          "indexed": true,
          "internalType": "address",
          "name": "owner",
          "type": "address"
        },
        {
          "indexed": true,
          "internalType": "address",
          "name": "operator",
          "type": "address"
        },
        {
          "indexed": false,
          "internalType": "bool",
          "name": "approved",
          "type": "bool"
        }
      ],
      "name": "ApprovalForAll",
      "type": "event"
    },
    {
      "anonymous": false,
      "inputs": [
        {
          "indexed": true,
          "internalType": "address",
          "name": "previousOwner",
          "type": "address"
        },
        {
          "indexed": true,
          "internalType": "address",
          "name": "newOwner",
          "type": "address"
        }
      ],
      "name": "OwnershipTransferred",
      "type": "event"
    },
    {
      "anonymous": false,
      "inputs": [
        {
          "indexed": true,
          "internalType": "address",
          "name": "from",
          "type": "address"
        },
        {
          "indexed": true,
          "internalType": "address",
          "name": "to",
          "type": "address"
        },
        {
          "indexed": true,
          "internalType": "uint256",
          "name": "tokenId",
          "type": "uint256"
        }
      ],
      "name": "Transfer",
      "type": "event"
    },
    {
      "inputs": [
        {
          "internalType": "address",
          "name": "to",
          "type": "address"
        },
        {
          "internalType": "uint256",
          "name": "tokenId",
          "type": "uint256"
        }
      ],
      "name": "approve",
      "outputs": [],
      "stateMutability": "nonpayable",
      "type": "function"
    },
    {
      "inputs": [
        {
          "internalType": "address",
          "name": "owner",
          "type": "address"
        }
      ],
      "name": "balanceOf",
      "outputs": [
        {
          "internalType": "uint256",
          "name": "",
          "type": "uint256"
        }
      ],
      "stateMutability": "view",
      "type": "function"
    },
    {
      "inputs": [],
      "name": "getAdminAddress",
      "outputs": [
        {
          "internalType": "address",
          "name": "adminAddress",
          "type": "address"
        }
      ],
      "stateMutability": "view",
      "type": "function"
    },
    {
      "inputs": [
        {
          "internalType": "uint256",
          "name": "tokenId",
          "type": "uint256"
        }
      ],
      "name": "getAdvancedEAVs",
      "outputs": [
        {
          "internalType": "uint256",
          "name": "",
          "type": "uint256"
        }
      ],
      "stateMutability": "view",
      "type": "function"
    },
    {
      "inputs": [
        {
          "internalType": "uint256",
          "name": "tokenId",
          "type": "uint256"
        }
      ],
      "name": "getApproved",
      "outputs": [
        {
          "internalType": "address",
          "name": "",
          "type": "address"
        }
      ],
      "stateMutability": "view",
      "type": "function"
    },
    {
      "inputs": [
        {
          "internalType": "uint256",
          "name": "tokenId",
          "type": "uint256"
        }
      ],
      "name": "getBufferPoolEAVs",
      "outputs": [
        {
          "internalType": "uint256",
          "name": "",
          "type": "uint256"
        }
      ],
      "stateMutability": "view",
      "type": "function"
    },
    {
      "inputs": [
        {
          "internalType": "uint256",
          "name": "tokenId",
          "type": "uint256"
        }
      ],
      "name": "getEcologicalIndex",
      "outputs": [
        {
          "components": [
            {
              "internalType": "string",
              "name": "indexType",
              "type": "string"
            },
            {
              "internalType": "int256",
              "name": "indexValue",
              "type": "int256"
            }
          ],
          "internalType": "struct CarbonPathNFT.EcologicalIndex",
          "name": "",
          "type": "tuple"
        }
      ],
      "stateMutability": "view",
      "type": "function"
    },
    {
      "inputs": [
        {
          "internalType": "uint256",
          "name": "tokenId",
          "type": "uint256"
        }
      ],
      "name": "getGeoJson",
      "outputs": [
        {
          "internalType": "string",
          "name": "",
          "type": "string"
        }
      ],
      "stateMutability": "view",
      "type": "function"
    },
    {
      "inputs": [
        {
          "internalType": "uint256",
          "name": "tokenId",
          "type": "uint256"
        }
      ],
      "name": "getMetadata",
      "outputs": [
        {
          "internalType": "string",
          "name": "",
          "type": "string"
        }
      ],
      "stateMutability": "view",
      "type": "function"
    },
    {
      "inputs": [
        {
          "internalType": "uint256",
          "name": "tokenId",
          "type": "uint256"
        }
      ],
      "name": "getRetiredEAVs",
      "outputs": [
        {
          "internalType": "uint256",
          "name": "",
          "type": "uint256"
        }
      ],
      "stateMutability": "view",
      "type": "function"
    },
    {
      "inputs": [
        {
          "internalType": "address",
          "name": "owner",
          "type": "address"
        },
        {
          "internalType": "address",
          "name": "operator",
          "type": "address"
        }
      ],
      "name": "isApprovedForAll",
      "outputs": [
        {
          "internalType": "bool",
          "name": "",
          "type": "bool"
        }
      ],
      "stateMutability": "view",
      "type": "function"
    },
    {
      "inputs": [
        {
          "internalType": "address",
          "name": "to",
          "type": "address"
        },
        {
          "internalType": "uint256",
          "name": "advanceAmount",
          "type": "uint256"
        },
        {
          "internalType": "uint256",
          "name": "bufferAmount",
          "type": "uint256"
        },
        {
          "internalType": "string",
          "name": "tokenUri",
          "type": "string"
        },
        {
          "internalType": "string",
          "name": "_metadata",
          "type": "string"
        },
        {
          "internalType": "string",
          "name": "_geoJson",
          "type": "string"
        }
      ],
      "name": "mint",
      "outputs": [],
      "stateMutability": "nonpayable",
      "type": "function"
    },
    {
      "inputs": [],
      "name": "name",
      "outputs": [
        {
          "internalType": "string",
          "name": "",
          "type": "string"
        }
      ],
      "stateMutability": "view",
      "type": "function"
    },
    {
      "inputs": [],
      "name": "owner",
      "outputs": [
        {
          "internalType": "address",
          "name": "",
          "type": "address"
        }
      ],
      "stateMutability": "view",
      "type": "function"
    },
    {
      "inputs": [
        {
          "internalType": "uint256",
          "name": "tokenId",
          "type": "uint256"
        }
      ],
      "name": "ownerOf",
      "outputs": [
        {
          "internalType": "address",
          "name": "",
          "type": "address"
        }
      ],
      "stateMutability": "view",
      "type": "function"
    },
    {
      "inputs": [],
      "name": "renounceOwnership",
      "outputs": [],
      "stateMutability": "nonpayable",
      "type": "function"
    },
    {
      "inputs": [
        {
          "internalType": "address",
          "name": "from",
          "type": "address"
        },
        {
          "internalType": "address",
          "name": "to",
          "type": "address"
        },
        {
          "internalType": "uint256",
          "name": "tokenId",
          "type": "uint256"
        }
      ],
      "name": "safeTransferFrom",
      "outputs": [],
      "stateMutability": "nonpayable",
      "type": "function"
    },
    {
      "inputs": [
        {
          "internalType": "address",
          "name": "from",
          "type": "address"
        },
        {
          "internalType": "address",
          "name": "to",
          "type": "address"
        },
        {
          "internalType": "uint256",
          "name": "tokenId",
          "type": "uint256"
        },
        {
          "internalType": "bytes",
          "name": "data",
          "type": "bytes"
        }
      ],
      "name": "safeTransferFrom",
      "outputs": [],
      "stateMutability": "nonpayable",
      "type": "function"
    },
    {
      "inputs": [
        {
          "internalType": "address",
          "name": "adminAddress",
          "type": "address"
        }
      ],
      "name": "setAdminAddress",
      "outputs": [],
      "stateMutability": "nonpayable",
      "type": "function"
    },
    {
      "inputs": [
        {
          "internalType": "address",
          "name": "operator",
          "type": "address"
        },
        {
          "internalType": "bool",
          "name": "approved",
          "type": "bool"
        }
      ],
      "name": "setApprovalForAll",
      "outputs": [],
      "stateMutability": "nonpayable",
      "type": "function"
    },
    {
      "inputs": [
        {
          "internalType": "uint256",
          "name": "_tokenId",
          "type": "uint256"
        },
        {
          "internalType": "string",
          "name": "_indexType",
          "type": "string"
        },
        {
          "internalType": "int256",
          "name": "_indexValue",
          "type": "int256"
        }
      ],
      "name": "setEcologicalIndex",
      "outputs": [],
      "stateMutability": "nonpayable",
      "type": "function"
    },
    {
      "inputs": [
        {
          "internalType": "uint256",
          "name": "tokenId",
          "type": "uint256"
        },
        {
          "internalType": "string",
          "name": "_metadata",
          "type": "string"
        }
      ],
      "name": "setMetadata",
      "outputs": [],
      "stateMutability": "nonpayable",
      "type": "function"
    },
    {
      "inputs": [
        {
          "internalType": "bytes4",
          "name": "interfaceId",
          "type": "bytes4"
        }
      ],
      "name": "supportsInterface",
      "outputs": [
        {
          "internalType": "bool",
          "name": "",
          "type": "bool"
        }
      ],
      "stateMutability": "view",
      "type": "function"
    },
    {
      "inputs": [],
      "name": "symbol",
      "outputs": [
        {
          "internalType": "string",
          "name": "",
          "type": "string"
        }
      ],
      "stateMutability": "view",
      "type": "function"
    },
    {
      "inputs": [
        {
          "internalType": "uint256",
          "name": "tokenId",
          "type": "uint256"
        }
      ],
      "name": "tokenURI",
      "outputs": [
        {
          "internalType": "string",
          "name": "",
          "type": "string"
        }
      ],
      "stateMutability": "view",
      "type": "function"
    },
    {
      "inputs": [
        {
          "internalType": "address",
          "name": "from",
          "type": "address"
        },
        {
          "internalType": "address",
          "name": "to",
          "type": "address"
        },
        {
          "internalType": "uint256",
          "name": "tokenId",
          "type": "uint256"
        }
      ],
      "name": "transferFrom",
      "outputs": [],
      "stateMutability": "nonpayable",
      "type": "function"
    },
    {
      "inputs": [
        {
          "internalType": "address",
          "name": "newOwner",
          "type": "address"
        }
      ],
      "name": "transferOwnership",
      "outputs": [],
      "stateMutability": "nonpayable",
      "type": "function"
    },
    {
      "inputs": [
        {
          "internalType": "uint256",
          "name": "tokenId",
          "type": "uint256"
        },
        {
          "internalType": "uint256",
          "name": "retiredAmount",
          "type": "uint256"
        }
      ],
      "name": "updateRetiredEAVs",
      "outputs": [],
      "stateMutability": "nonpayable",
      "type": "function"
    }
  ],
  "bytecode": "0x60806040523480156200001157600080fd5b506040516200229a3803806200229a833981016040819052620000349162000198565b6040518060400160405280600f81526020016e10d85c989bdb8814185d1a08139195608a1b815250604051806040016040528060068152602001650910d413919560d21b815250620000956200008f6200014460201b60201c565b62000148565b6001620000a383826200026f565b506002620000b282826200026f565b5050506001600160a01b0381166200011e5760405162461bcd60e51b815260206004820152602560248201527f436172626f6e506174684e46543a207a65726f206164647265737320666f722060448201526430b236b4b760d91b606482015260840160405180910390fd5b600880546001600160a01b0319166001600160a01b03929092169190911790556200033b565b3390565b600080546001600160a01b038381166001600160a01b0319831681178455604051919092169283917f8be0079c531659141344cd1fd0a4f28419497f9722a3daafe3b4186f6b6457e09190a35050565b600060208284031215620001ab57600080fd5b81516001600160a01b0381168114620001c357600080fd5b9392505050565b634e487b7160e01b600052604160045260246000fd5b600181811c90821680620001f557607f821691505b6020821081036200021657634e487b7160e01b600052602260045260246000fd5b50919050565b601f8211156200026a57600081815260208120601f850160051c81016020861015620002455750805b601f850160051c820191505b81811015620002665782815560010162000251565b5050505b505050565b81516001600160401b038111156200028b576200028b620001ca565b620002a3816200029c8454620001e0565b846200021c565b602080601f831160018114620002db5760008415620002c25750858301515b600019600386901b1c1916600185901b17855562000266565b600085815260208120601f198616915b828110156200030c57888601518255948401946001909101908401620002eb565b50858210156200032b5787850151600019600388901b60f8161c191681555b5050505050600190811b01905550565b611f4f806200034b6000396000f3fe608060405234801561001057600080fd5b50600436106101c45760003560e01c806370a08231116100f9578063b2e6b91211610097578063c10645a511610071578063c10645a5146103e0578063c87b56dd14610403578063e985e9c514610416578063f2fde38b1461042957600080fd5b8063b2e6b9121461039c578063b3b4d323146103ad578063b88d4fde146103cd57600080fd5b806395d89b41116100d357806395d89b411461034e5780639d2b6fb014610356578063a22cb46514610376578063a574cea41461038957600080fd5b806370a0823114610322578063715018a6146103355780638da5cb5b1461033d57600080fd5b806323b872dd1161016657806342842e0e1161014057806342842e0e146102d6578063476de4a8146102e9578063593aa283146102fc5780636352211e1461030f57600080fd5b806323b872dd1461027f5780632b2b8584146102925780632c1e816d146102c357600080fd5b806306fdde03116101a257806306fdde0314610226578063081812fc1461022e578063095ea7b31461025957806317fc277b1461026c57600080fd5b806301ffc9a7146101c957806304f5eb84146101f157806305806dc914610211575b600080fd5b6101dc6101d7366004611756565b61043c565b60405190151581526020015b60405180910390f35b6102046101ff366004611773565b61048e565b6040516101e891906117dc565b61022461021f3660046117ef565b610530565b005b610204610646565b61024161023c366004611773565b6106d8565b6040516001600160a01b0390911681526020016101e8565b61022461026736600461182d565b6106ff565b61022461027a366004611903565b610814565b61022461028d366004611953565b61083e565b6102b56102a0366004611773565b6000908152600d602052604090206002015490565b6040519081526020016101e8565b6102246102d136600461198f565b61086f565b6102246102e4366004611953565b6108fd565b6102246102f73660046119aa565b610918565b61022461030a366004611a55565b610a23565b61024161031d366004611773565b610a43565b6102b561033036600461198f565b610aa3565b610224610b29565b6000546001600160a01b0316610241565b610204610b3d565b610369610364366004611773565b610b4c565b6040516101e89190611a9c565b610224610384366004611ace565b610c1b565b610204610397366004611773565b610c2a565b6008546001600160a01b0316610241565b6102b56103bb366004611773565b6000908152600d602052604090205490565b6102246103db366004611b0a565b610c47565b6102b56103ee366004611773565b6000908152600d602052604090206001015490565b610204610411366004611773565b610c7f565b6101dc610424366004611b86565b610d8f565b61022461043736600461198f565b610dbd565b60006001600160e01b031982166380ac58cd60e01b148061046d57506001600160e01b03198216635b5e139f60e01b145b8061048857506301ffc9a760e01b6001600160e01b03198316145b92915050565b6000818152600a602052604090208054606091906104ab90611bb9565b80601f01602080910402602001604051908101604052809291908181526020018280546104d790611bb9565b80156105245780601f106104f957610100808354040283529160200191610524565b820191906000526020600020905b81548152906001019060200180831161050757829003601f168201915b50505050509050919050565b6008546001600160a01b0316336001600160a01b03161461056c5760405162461bcd60e51b815260040161056390611bf3565b60405180910390fd5b6000828152600d6020526040902060020154610589908290611c4f565b6000838152600d60205260409020600181015490546105a89190611c4f565b101561061c5760405162461bcd60e51b815260206004820152603760248201527f436172626f6e506174684e46543a207265746972656420616d6f756e7420776960448201527f6c6c20657863656564206d696e74656420616d6f756e740000000000000000006064820152608401610563565b6000828152600d60205260408120600201805483929061063d908490611c4f565b90915550505050565b60606001805461065590611bb9565b80601f016020809104026020016040519081016040528092919081815260200182805461068190611bb9565b80156106ce5780601f106106a3576101008083540402835291602001916106ce565b820191906000526020600020905b8154815290600101906020018083116106b157829003601f168201915b5050505050905090565b60006106e382610e36565b506000908152600560205260409020546001600160a01b031690565b600061070a82610a43565b9050806001600160a01b0316836001600160a01b0316036107775760405162461bcd60e51b815260206004820152602160248201527f4552433732313a20617070726f76616c20746f2063757272656e74206f776e656044820152603960f91b6064820152608401610563565b336001600160a01b038216148061079357506107938133610d8f565b6108055760405162461bcd60e51b815260206004820152603e60248201527f4552433732313a20617070726f76652063616c6c6572206973206e6f7420746f60448201527f6b656e206f776e6572206e6f7220617070726f76656420666f7220616c6c00006064820152608401610563565b61080f8383610e95565b505050565b61081c610f03565b6000838152600b60205260409020806108358482611cb0565b50600101555050565b6108483382610f5d565b6108645760405162461bcd60e51b815260040161056390611d70565b61080f838383610fbb565b610877610f03565b6001600160a01b0381166108db5760405162461bcd60e51b815260206004820152602560248201527f436172626f6e506174684e46543a207a65726f206164647265737320666f722060448201526430b236b4b760d91b6064820152608401610563565b600880546001600160a01b0319166001600160a01b0392909216919091179055565b61080f83838360405180602001604052806000815250610c47565b6008546001600160a01b0316336001600160a01b03161461094b5760405162461bcd60e51b815260040161056390611bf3565b600083511161099c5760405162461bcd60e51b815260206004820181905260248201527f436172626f6e506174684e46543a207572692073686f756c64206265207365746044820152606401610563565b60006109a760095490565b6000818152600c602052604090209091506109c28482611cb0565b506000818152600a602052604090206109db8382611cb0565b506000818152600d602052604081208781556001810187905560020155610a028782611157565b610a0c8185611171565b610a1a600980546001019055565b50505050505050565b610a2b610f03565b6000828152600c6020526040902061080f8282611cb0565b6000818152600360205260408120546001600160a01b0316806104885760405162461bcd60e51b8152602060048201526018602482015277115490cdcc8c4e881a5b9d985b1a59081d1bdad95b88125160421b6044820152606401610563565b60006001600160a01b038216610b0d5760405162461bcd60e51b815260206004820152602960248201527f4552433732313a2061646472657373207a65726f206973206e6f7420612076616044820152683634b21037bbb732b960b91b6064820152608401610563565b506001600160a01b031660009081526004602052604090205490565b610b31610f03565b610b3b6000611204565b565b60606002805461065590611bb9565b6040805180820190915260608152600060208201526000828152600b6020526040908190208151808301909252805482908290610b8890611bb9565b80601f0160208091040260200160405190810160405280929190818152602001828054610bb490611bb9565b8015610c015780601f10610bd657610100808354040283529160200191610c01565b820191906000526020600020905b815481529060010190602001808311610be457829003601f168201915b505050505081526020016001820154815250509050919050565b610c26338383611254565b5050565b6000818152600c602052604090208054606091906104ab90611bb9565b610c513383610f5d565b610c6d5760405162461bcd60e51b815260040161056390611d70565b610c7984848484611322565b50505050565b6060610c8a82610e36565b60008281526007602052604081208054610ca390611bb9565b80601f0160208091040260200160405190810160405280929190818152602001828054610ccf90611bb9565b8015610d1c5780601f10610cf157610100808354040283529160200191610d1c565b820191906000526020600020905b815481529060010190602001808311610cff57829003601f168201915b505050505090506000610d3a60408051602081019091526000815290565b90508051600003610d4c575092915050565b815115610d7e578082604051602001610d66929190611dbe565b60405160208183030381529060405292505050919050565b610d8784611355565b949350505050565b6001600160a01b03918216600090815260066020908152604080832093909416825291909152205460ff1690565b610dc5610f03565b6001600160a01b038116610e2a5760405162461bcd60e51b815260206004820152602660248201527f4f776e61626c653a206e6577206f776e657220697320746865207a65726f206160448201526564647265737360d01b6064820152608401610563565b610e3381611204565b50565b6000818152600360205260409020546001600160a01b0316610e335760405162461bcd60e51b8152602060048201526018602482015277115490cdcc8c4e881a5b9d985b1a59081d1bdad95b88125160421b6044820152606401610563565b600081815260056020526040902080546001600160a01b0319166001600160a01b0384169081179091558190610eca82610a43565b6001600160a01b03167f8c5be1e5ebec7d5bd14f71427d1e84f3dd0314c0f7b2291e5b200ac8c7c3b92560405160405180910390a45050565b6000546001600160a01b03163314610b3b5760405162461bcd60e51b815260206004820181905260248201527f4f776e61626c653a2063616c6c6572206973206e6f7420746865206f776e65726044820152606401610563565b600080610f6983610a43565b9050806001600160a01b0316846001600160a01b03161480610f905750610f908185610d8f565b80610d875750836001600160a01b0316610fa9846106d8565b6001600160a01b031614949350505050565b826001600160a01b0316610fce82610a43565b6001600160a01b0316146110325760405162461bcd60e51b815260206004820152602560248201527f4552433732313a207472616e736665722066726f6d20696e636f72726563742060448201526437bbb732b960d91b6064820152608401610563565b6001600160a01b0382166110945760405162461bcd60e51b8152602060048201526024808201527f4552433732313a207472616e7366657220746f20746865207a65726f206164646044820152637265737360e01b6064820152608401610563565b61109f600082610e95565b6001600160a01b03831660009081526004602052604081208054600192906110c8908490611ded565b90915550506001600160a01b03821660009081526004602052604081208054600192906110f6908490611c4f565b909155505060008181526003602052604080822080546001600160a01b0319166001600160a01b0386811691821790925591518493918716917fddf252ad1be2c89b69c2b068fc378daa952ba7f163c4a11628f55a4df523b3ef91a4505050565b610c268282604051806020016040528060008152506113c9565b6000828152600360205260409020546001600160a01b03166111ec5760405162461bcd60e51b815260206004820152602e60248201527f45524337323155524953746f726167653a2055524920736574206f66206e6f6e60448201526d32bc34b9ba32b73a103a37b5b2b760911b6064820152608401610563565b600082815260076020526040902061080f8282611cb0565b600080546001600160a01b038381166001600160a01b0319831681178455604051919092169283917f8be0079c531659141344cd1fd0a4f28419497f9722a3daafe3b4186f6b6457e09190a35050565b816001600160a01b0316836001600160a01b0316036112b55760405162461bcd60e51b815260206004820152601960248201527f4552433732313a20617070726f766520746f2063616c6c6572000000000000006044820152606401610563565b6001600160a01b03838116600081815260066020908152604080832094871680845294825291829020805460ff191686151590811790915591519182527f17307eab39ab6107e8899845ad3d59bd9653f200f220920489ca2b5937696c31910160405180910390a3505050565b61132d848484610fbb565b611339848484846113fc565b610c795760405162461bcd60e51b815260040161056390611e00565b606061136082610e36565b600061137760408051602081019091526000815290565b9050600081511161139757604051806020016040528060008152506113c2565b806113a1846114fd565b6040516020016113b2929190611dbe565b6040516020818303038152906040525b9392505050565b6113d383836115fe565b6113e060008484846113fc565b61080f5760405162461bcd60e51b815260040161056390611e00565b60006001600160a01b0384163b156114f257604051630a85bd0160e11b81526001600160a01b0385169063150b7a0290611440903390899088908890600401611e52565b6020604051808303816000875af192505050801561147b575060408051601f3d908101601f1916820190925261147891810190611e8f565b60015b6114d8573d8080156114a9576040519150601f19603f3d011682016040523d82523d6000602084013e6114ae565b606091505b5080516000036114d05760405162461bcd60e51b815260040161056390611e00565b805181602001fd5b6001600160e01b031916630a85bd0160e11b149050610d87565b506001949350505050565b6060816000036115245750506040805180820190915260018152600360fc1b602082015290565b8160005b811561154e578061153881611eac565b91506115479050600a83611edb565b9150611528565b60008167ffffffffffffffff81111561156957611569611857565b6040519080825280601f01601f191660200182016040528015611593576020820181803683370190505b5090505b8415610d87576115a8600183611ded565b91506115b5600a86611eef565b6115c0906030611c4f565b60f81b8183815181106115d5576115d5611f03565b60200101906001600160f81b031916908160001a9053506115f7600a86611edb565b9450611597565b6001600160a01b0382166116545760405162461bcd60e51b815260206004820181905260248201527f4552433732313a206d696e7420746f20746865207a65726f20616464726573736044820152606401610563565b6000818152600360205260409020546001600160a01b0316156116b95760405162461bcd60e51b815260206004820152601c60248201527f4552433732313a20746f6b656e20616c7265616479206d696e746564000000006044820152606401610563565b6001600160a01b03821660009081526004602052604081208054600192906116e2908490611c4f565b909155505060008181526003602052604080822080546001600160a01b0319166001600160a01b03861690811790915590518392907fddf252ad1be2c89b69c2b068fc378daa952ba7f163c4a11628f55a4df523b3ef908290a45050565b6001600160e01b031981168114610e3357600080fd5b60006020828403121561176857600080fd5b81356113c281611740565b60006020828403121561178557600080fd5b5035919050565b60005b838110156117a757818101518382015260200161178f565b50506000910152565b600081518084526117c881602086016020860161178c565b601f01601f19169290920160200192915050565b6020815260006113c260208301846117b0565b6000806040838503121561180257600080fd5b50508035926020909101359150565b80356001600160a01b038116811461182857600080fd5b919050565b6000806040838503121561184057600080fd5b61184983611811565b946020939093013593505050565b634e487b7160e01b600052604160045260246000fd5b600067ffffffffffffffff8084111561188857611888611857565b604051601f8501601f19908116603f011681019082821181831017156118b0576118b0611857565b816040528093508581528686860111156118c957600080fd5b858560208301376000602087830101525050509392505050565b600082601f8301126118f457600080fd5b6113c28383356020850161186d565b60008060006060848603121561191857600080fd5b83359250602084013567ffffffffffffffff81111561193657600080fd5b611942868287016118e3565b925050604084013590509250925092565b60008060006060848603121561196857600080fd5b61197184611811565b925061197f60208501611811565b9150604084013590509250925092565b6000602082840312156119a157600080fd5b6113c282611811565b60008060008060008060c087890312156119c357600080fd5b6119cc87611811565b95506020870135945060408701359350606087013567ffffffffffffffff808211156119f757600080fd5b611a038a838b016118e3565b94506080890135915080821115611a1957600080fd5b611a258a838b016118e3565b935060a0890135915080821115611a3b57600080fd5b50611a4889828a016118e3565b9150509295509295509295565b60008060408385031215611a6857600080fd5b82359150602083013567ffffffffffffffff811115611a8657600080fd5b611a92858286016118e3565b9150509250929050565b602081526000825160406020840152611ab860608401826117b0565b9050602084015160408401528091505092915050565b60008060408385031215611ae157600080fd5b611aea83611811565b915060208301358015158114611aff57600080fd5b809150509250929050565b60008060008060808587031215611b2057600080fd5b611b2985611811565b9350611b3760208601611811565b925060408501359150606085013567ffffffffffffffff811115611b5a57600080fd5b8501601f81018713611b6b57600080fd5b611b7a8782356020840161186d565b91505092959194509250565b60008060408385031215611b9957600080fd5b611ba283611811565b9150611bb060208401611811565b90509250929050565b600181811c90821680611bcd57607f821691505b602082108103611bed57634e487b7160e01b600052602260045260246000fd5b50919050565b60208082526026908201527f436172626f6e506174684e46543a2063616c6c6572206973206e6f74207468656040820152651030b236b4b760d11b606082015260800190565b634e487b7160e01b600052601160045260246000fd5b8082018082111561048857610488611c39565b601f82111561080f57600081815260208120601f850160051c81016020861015611c895750805b601f850160051c820191505b81811015611ca857828155600101611c95565b505050505050565b815167ffffffffffffffff811115611cca57611cca611857565b611cde81611cd88454611bb9565b84611c62565b602080601f831160018114611d135760008415611cfb5750858301515b600019600386901b1c1916600185901b178555611ca8565b600085815260208120601f198616915b82811015611d4257888601518255948401946001909101908401611d23565b5085821015611d605787850151600019600388901b60f8161c191681555b5050505050600190811b01905550565b6020808252602e908201527f4552433732313a2063616c6c6572206973206e6f7420746f6b656e206f776e6560408201526d1c881b9bdc88185c1c1c9bdd995960921b606082015260800190565b60008351611dd081846020880161178c565b835190830190611de481836020880161178c565b01949350505050565b8181038181111561048857610488611c39565b60208082526032908201527f4552433732313a207472616e7366657220746f206e6f6e20455243373231526560408201527131b2b4bb32b91034b6b83632b6b2b73a32b960711b606082015260800190565b6001600160a01b0385811682528416602082015260408101839052608060608201819052600090611e85908301846117b0565b9695505050505050565b600060208284031215611ea157600080fd5b81516113c281611740565b600060018201611ebe57611ebe611c39565b5060010190565b634e487b7160e01b600052601260045260246000fd5b600082611eea57611eea611ec5565b500490565b600082611efe57611efe611ec5565b500690565b634e487b7160e01b600052603260045260246000fdfea26469706673582212201dddbf5595b3388ec5d4dcfb65d5fde27431dc26cd20fd6082ae2b9eff4cafa564736f6c63430008110033",
  "linkReferences": {},
  "deployedLinkReferences": {}
}