{
  "_format": "hh-sol-artifact-1",
  "contractName": "CarbonPathAdmin",
  "sourceName": "contracts/CarbonPathAdmin.sol",
  "abi": [
    {
      "inputs": [
        {
          "internalType": "address",
          "name": "_nftContractAddress",
          "type": "address"
        },
        {
          "internalType": "address",
          "name": "_tokenContractAddress",
          "type": "address"
        },
        {
          "internalType": "address",
          "name": "_stableTokenAddress",
          "type": "address"
        }
      ],
      "stateMutability": "nonpayable",
      "type": "constructor"
    },
    {
      "anonymous": false,
      "inputs": [
        {
          "indexed": true,
          "internalType": "address",
          "name": "previousOwner",
          "type": "address"
        },
        {
          "indexed": true,
          "internalType": "address",
          "name": "newOwner",
          "type": "address"
        }
      ],
      "name": "OwnershipTransferred",
      "type": "event"
    },
    {
      "anonymous": false,
      "inputs": [
        {
          "indexed": true,
          "internalType": "bytes32",
          "name": "role",
          "type": "bytes32"
        },
        {
          "indexed": true,
          "internalType": "bytes32",
          "name": "previousAdminRole",
          "type": "bytes32"
        },
        {
          "indexed": true,
          "internalType": "bytes32",
          "name": "newAdminRole",
          "type": "bytes32"
        }
      ],
      "name": "RoleAdminChanged",
      "type": "event"
    },
    {
      "anonymous": false,
      "inputs": [
        {
          "indexed": true,
          "internalType": "bytes32",
          "name": "role",
          "type": "bytes32"
        },
        {
          "indexed": true,
          "internalType": "address",
          "name": "account",
          "type": "address"
        },
        {
          "indexed": true,
          "internalType": "address",
          "name": "sender",
          "type": "address"
        }
      ],
      "name": "RoleGranted",
      "type": "event"
    },
    {
      "anonymous": false,
      "inputs": [
        {
          "indexed": true,
          "internalType": "bytes32",
          "name": "role",
          "type": "bytes32"
        },
        {
          "indexed": true,
          "internalType": "address",
          "name": "account",
          "type": "address"
        },
        {
          "indexed": true,
          "internalType": "address",
          "name": "sender",
          "type": "address"
        }
      ],
      "name": "RoleRevoked",
      "type": "event"
    },
    {
      "inputs": [],
      "name": "BASE_PERCENTAGE",
      "outputs": [
        {
          "internalType": "uint256",
          "name": "",
          "type": "uint256"
        }
      ],
      "stateMutability": "view",
      "type": "function"
    },
    {
      "inputs": [],
      "name": "DEFAULT_ADMIN_ROLE",
      "outputs": [
        {
          "internalType": "bytes32",
          "name": "",
          "type": "bytes32"
        }
      ],
      "stateMutability": "view",
      "type": "function"
    },
    {
      "inputs": [],
      "name": "EXCHANGE_RATE",
      "outputs": [
        {
          "internalType": "uint256",
          "name": "",
          "type": "uint256"
        }
      ],
      "stateMutability": "view",
      "type": "function"
    },
    {
      "inputs": [],
      "name": "NON_PROFIT_PERCENTAGE",
      "outputs": [
        {
          "internalType": "uint256",
          "name": "",
          "type": "uint256"
        }
      ],
      "stateMutability": "view",
      "type": "function"
    },
    {
      "inputs": [],
      "name": "bufferPoolAddress",
      "outputs": [
        {
          "internalType": "address",
          "name": "",
          "type": "address"
        }
      ],
      "stateMutability": "view",
      "type": "function"
    },
    {
      "inputs": [
        {
          "internalType": "uint256",
          "name": "cpAmount",
          "type": "uint256"
        }
      ],
      "name": "buy",
      "outputs": [],
      "stateMutability": "nonpayable",
      "type": "function"
    },
    {
      "inputs": [],
      "name": "carbonPathNFT",
      "outputs": [
        {
          "internalType": "contract CarbonPathNFT",
          "name": "",
          "type": "address"
        }
      ],
      "stateMutability": "view",
      "type": "function"
    },
    {
      "inputs": [],
      "name": "carbonPathToken",
      "outputs": [
        {
          "internalType": "contract CarbonPathToken",
          "name": "",
          "type": "address"
        }
      ],
      "stateMutability": "view",
      "type": "function"
    },
    {
      "inputs": [],
      "name": "cpFeeAddress",
      "outputs": [
        {
          "internalType": "address",
          "name": "",
          "type": "address"
        }
      ],
      "stateMutability": "view",
      "type": "function"
    },
    {
      "inputs": [
        {
          "internalType": "bytes32",
          "name": "role",
          "type": "bytes32"
        }
      ],
      "name": "getRoleAdmin",
      "outputs": [
        {
          "internalType": "bytes32",
          "name": "",
          "type": "bytes32"
        }
      ],
      "stateMutability": "view",
      "type": "function"
    },
    {
      "inputs": [
        {
          "internalType": "address",
          "name": "account",
          "type": "address"
        }
      ],
      "name": "grantMinter",
      "outputs": [],
      "stateMutability": "nonpayable",
      "type": "function"
    },
    {
      "inputs": [
        {
          "internalType": "bytes32",
          "name": "role",
          "type": "bytes32"
        },
        {
          "internalType": "address",
          "name": "account",
          "type": "address"
        }
      ],
      "name": "grantRole",
      "outputs": [],
      "stateMutability": "nonpayable",
      "type": "function"
    },
    {
      "inputs": [
        {
          "internalType": "bytes32",
          "name": "role",
          "type": "bytes32"
        },
        {
          "internalType": "address",
          "name": "account",
          "type": "address"
        }
      ],
      "name": "hasRole",
      "outputs": [
        {
          "internalType": "bool",
          "name": "",
          "type": "bool"
        }
      ],
      "stateMutability": "view",
      "type": "function"
    },
    {
      "inputs": [
        {
          "internalType": "address",
          "name": "to",
          "type": "address"
        },
        {
          "internalType": "uint256",
          "name": "advanceAmount",
          "type": "uint256"
        },
        {
          "internalType": "uint256",
          "name": "cpFeePercentage",
          "type": "uint256"
        },
        {
          "internalType": "uint256",
          "name": "bufferAmount",
          "type": "uint256"
        },
        {
          "internalType": "address",
          "name": "operatorAddress",
          "type": "address"
        },
        {
          "internalType": "string",
          "name": "tokenUri",
          "type": "string"
        },
        {
          "internalType": "string",
          "name": "metadata",
          "type": "string"
        },
        {
          "internalType": "string",
          "name": "geoJson",
          "type": "string"
        }
      ],
      "name": "mint",
      "outputs": [],
      "stateMutability": "nonpayable",
      "type": "function"
    },
    {
      "inputs": [],
      "name": "nonProfitAddress",
      "outputs": [
        {
          "internalType": "address",
          "name": "",
          "type": "address"
        }
      ],
      "stateMutability": "view",
      "type": "function"
    },
    {
      "inputs": [],
      "name": "owner",
      "outputs": [
        {
          "internalType": "address",
          "name": "",
          "type": "address"
        }
      ],
      "stateMutability": "view",
      "type": "function"
    },
    {
      "inputs": [],
      "name": "renounceOwnership",
      "outputs": [],
      "stateMutability": "nonpayable",
      "type": "function"
    },
    {
      "inputs": [
        {
          "internalType": "bytes32",
          "name": "role",
          "type": "bytes32"
        },
        {
          "internalType": "address",
          "name": "account",
          "type": "address"
        }
      ],
      "name": "renounceRole",
      "outputs": [],
      "stateMutability": "nonpayable",
      "type": "function"
    },
    {
      "inputs": [
        {
          "internalType": "uint256",
          "name": "tokenId",
          "type": "uint256"
        },
        {
          "internalType": "uint256",
          "name": "amount",
          "type": "uint256"
        }
      ],
      "name": "retire",
      "outputs": [],
      "stateMutability": "nonpayable",
      "type": "function"
    },
    {
      "inputs": [
        {
          "internalType": "address",
          "name": "account",
          "type": "address"
        }
      ],
      "name": "revokeMinter",
      "outputs": [],
      "stateMutability": "nonpayable",
      "type": "function"
    },
    {
      "inputs": [
        {
          "internalType": "bytes32",
          "name": "role",
          "type": "bytes32"
        },
        {
          "internalType": "address",
          "name": "account",
          "type": "address"
        }
      ],
      "name": "revokeRole",
      "outputs": [],
      "stateMutability": "nonpayable",
      "type": "function"
    },
    {
      "inputs": [
        {
          "internalType": "uint256",
          "name": "amount",
          "type": "uint256"
        }
      ],
      "name": "sell",
      "outputs": [],
      "stateMutability": "nonpayable",
      "type": "function"
    },
    {
      "inputs": [],
      "name": "sellerAddress",
      "outputs": [
        {
          "internalType": "address",
          "name": "",
          "type": "address"
        }
      ],
      "stateMutability": "view",
      "type": "function"
    },
    {
      "inputs": [
        {
          "internalType": "address",
          "name": "_address",
          "type": "address"
        }
      ],
      "name": "setBufferPoolAddress",
      "outputs": [],
      "stateMutability": "nonpayable",
      "type": "function"
    },
    {
      "inputs": [
        {
          "internalType": "address",
          "name": "_address",
          "type": "address"
        }
      ],
      "name": "setCpFeeAddress",
      "outputs": [],
      "stateMutability": "nonpayable",
      "type": "function"
    },
    {
      "inputs": [
        {
          "internalType": "address",
          "name": "_address",
          "type": "address"
        }
      ],
      "name": "setNonProfitAddress",
      "outputs": [],
      "stateMutability": "nonpayable",
      "type": "function"
    },
    {
      "inputs": [
        {
          "internalType": "address",
          "name": "_address",
          "type": "address"
        }
      ],
      "name": "setSellerAddress",
      "outputs": [],
      "stateMutability": "nonpayable",
      "type": "function"
    },
    {
      "inputs": [],
      "name": "stableToken",
      "outputs": [
        {
          "internalType": "contract IERC20",
          "name": "",
          "type": "address"
        }
      ],
      "stateMutability": "view",
      "type": "function"
    },
    {
      "inputs": [
        {
          "internalType": "bytes4",
          "name": "interfaceId",
          "type": "bytes4"
        }
      ],
      "name": "supportsInterface",
      "outputs": [
        {
          "internalType": "bool",
          "name": "",
          "type": "bool"
        }
      ],
      "stateMutability": "view",
      "type": "function"
    },
    {
      "inputs": [
        {
          "internalType": "address",
          "name": "newOwner",
          "type": "address"
        }
      ],
      "name": "transferOwnership",
      "outputs": [],
      "stateMutability": "nonpayable",
      "type": "function"
    },
    {
      "inputs": [
        {
          "internalType": "uint256",
          "name": "amount",
          "type": "uint256"
        }
      ],
      "name": "withdraw",
      "outputs": [],
      "stateMutability": "nonpayable",
      "type": "function"
    }
  ],
  "bytecode": "0x60806040523480156200001157600080fd5b506040516200200d3803806200200d8339810160408190526200003491620001cf565b6200003f33620000ca565b6001600255600380546001600160a01b038086166001600160a01b0319928316179092556004805485841690831617905560058054928416929091169190911790556200009560006200008f3390565b6200011a565b620000c17f9f2df0fed2c77648de5860a4cc508cd0818c85b8b8a1ab4ceeef8d981c8956a6336200011a565b50505062000219565b600080546001600160a01b038381166001600160a01b0319831681178455604051919092169283917f8be0079c531659141344cd1fd0a4f28419497f9722a3daafe3b4186f6b6457e09190a35050565b6200012682826200012a565b5050565b60008281526001602090815260408083206001600160a01b038516845290915290205460ff16620001265760008281526001602081815260408084206001600160a01b0386168086529252808420805460ff19169093179092559051339285917f2f8788117e7eff1d82e926ec794901d17c78024a50270940304540a733656f0d9190a45050565b80516001600160a01b0381168114620001ca57600080fd5b919050565b600080600060608486031215620001e557600080fd5b620001f084620001b2565b92506200020060208501620001b2565b91506200021060408501620001b2565b90509250925092565b611de480620002296000396000f3fe608060405234801561001057600080fd5b50600436106101e45760003560e01c80635ee6a8a31161010f578063bbf8d3a5116100a2578063d96a094a11610071578063d96a094a14610400578063e4849b3214610413578063e4d589e814610426578063f2fde38b1461043957600080fd5b8063bbf8d3a5146103b4578063c57e5663146103c7578063cfbd4885146103da578063d547741f146103ed57600080fd5b806391d14854116100de57806391d1485414610373578063a12df12e14610386578063a217fddf14610399578063a9d75b2b146103a157600080fd5b80635ee6a8a31461033f578063715018a6146103525780637e2e8d931461035a5780638da5cb5b1461036257600080fd5b80632643d6271161018757806336568abe1161015657806336568abe146102f35780633d9b2ae614610306578063528ee605146103195780635380aea31461032c57600080fd5b80632643d627146102b1578063293a7f2e146102ba5780632e1a7d4d146102cd5780632f2ff15d146102e057600080fd5b806314a8bd0d116101c357806314a8bd0d14610251578063159eea0514610267578063248a9ca31461027a578063261707fa1461029e57600080fd5b8062fee372146101e957806301ffc9a7146102195780630d374eca1461023c575b600080fd5b6007546101fc906001600160a01b031681565b6040516001600160a01b0390911681526020015b60405180910390f35b61022c61022736600461181e565b61044c565b6040519015158152602001610210565b61024f61024a366004611864565b610483565b005b610259601e81565b604051908152602001610210565b6004546101fc906001600160a01b031681565b61025961028836600461187f565b6000908152600160208190526040909120015490565b61024f6102ac366004611864565b6104d5565b6102596103e881565b61024f6102c8366004611898565b610529565b61024f6102db36600461187f565b610732565b61024f6102ee3660046118ba565b610902565b61024f6103013660046118ba565b61092d565b6009546101fc906001600160a01b031681565b61024f610327366004611864565b6109ab565b6006546101fc906001600160a01b031681565b61024f61034d366004611989565b6109f4565b61024f610dd0565b610259603281565b6000546001600160a01b03166101fc565b61022c6103813660046118ba565b610de4565b61024f610394366004611864565b610e0f565b610259600081565b6005546101fc906001600160a01b031681565b6003546101fc906001600160a01b031681565b61024f6103d5366004611864565b610e58565b61024f6103e8366004611864565b610ea1565b61024f6103fb3660046118ba565b610ef2565b61024f61040e36600461187f565b610f18565b61024f61042136600461187f565b611234565b6008546101fc906001600160a01b031681565b61024f610447366004611864565b6113c9565b60006001600160e01b03198216637965db0b60e01b148061047d57506301ffc9a760e01b6001600160e01b03198316145b92915050565b61048e600033610de4565b6104b35760405162461bcd60e51b81526004016104aa90611a50565b60405180910390fd5b600880546001600160a01b0319166001600160a01b0392909216919091179055565b6104e0600033610de4565b6104fc5760405162461bcd60e51b81526004016104aa90611a95565b6105267f9f2df0fed2c77648de5860a4cc508cd0818c85b8b8a1ab4ceeef8d981c8956a68261143f565b50565b600280540361054a5760405162461bcd60e51b81526004016104aa90611ad6565b60028055806105b65760405162461bcd60e51b815260206004820152603260248201527f436172626f6e5061746841646d696e3a207265746972656420616d6f756e74206044820152716d757374206265206174206c65617374203160701b60648201526084016104aa565b60045481906001600160a01b03166370a08231336040516001600160e01b031960e084901b1681526001600160a01b039091166004820152602401602060405180830381865afa15801561060e573d6000803e3d6000fd5b505050506040513d601f19601f820116820180604052508101906106329190611b0d565b10156106505760405162461bcd60e51b81526004016104aa90611b26565b6003546040516305806dc960e01b815260048101849052602481018390526001600160a01b03909116906305806dc990604401600060405180830381600087803b15801561069d57600080fd5b505af11580156106b1573d6000803e3d6000fd5b50506004546001600160a01b031691506379cc67909050336040516001600160e01b031960e084901b1681526001600160a01b03909116600482015260248101849052604401600060405180830381600087803b15801561071157600080fd5b505af1158015610725573d6000803e3d6000fd5b5050600160025550505050565b6009546001600160a01b0316336001600160a01b0316146107655760405162461bcd60e51b81526004016104aa90611b69565b60028054036107865760405162461bcd60e51b81526004016104aa90611ad6565b60028055806107f35760405162461bcd60e51b815260206004820152603360248201527f436172626f6e5061746841646d696e3a20776974686472617720616d6f756e74604482015272206d757374206265206174206c65617374203160681b60648201526084016104aa565b600480546040516370a0823160e01b8152309281019290925282916001600160a01b03909116906370a0823190602401602060405180830381865afa158015610840573d6000803e3d6000fd5b505050506040513d601f19601f820116820180604052508101906108649190611b0d565b10156108825760405162461bcd60e51b81526004016104aa90611b26565b6004805460405163a9059cbb60e01b81523392810192909252602482018390526001600160a01b03169063a9059cbb906044015b6020604051808303816000875af11580156108d5573d6000803e3d6000fd5b505050506040513d601f19601f820116820180604052508101906108f99190611bb2565b50506001600255565b6000828152600160208190526040909120015461091e816114aa565b610928838361143f565b505050565b6001600160a01b038116331461099d5760405162461bcd60e51b815260206004820152602f60248201527f416363657373436f6e74726f6c3a2063616e206f6e6c792072656e6f756e636560448201526e103937b632b9903337b91039b2b63360891b60648201526084016104aa565b6109a782826114b4565b5050565b6109b6600033610de4565b6109d25760405162461bcd60e51b81526004016104aa90611a50565b600780546001600160a01b0319166001600160a01b0392909216919091179055565b6002805403610a155760405162461bcd60e51b81526004016104aa90611ad6565b60028055610a437f9f2df0fed2c77648de5860a4cc508cd0818c85b8b8a1ab4ceeef8d981c8956a633610de4565b610aa65760405162461bcd60e51b815260206004820152602e60248201527f436172626f6e5061746841646d696e3a206d7573742068617665206d696e746560448201526d1c881c9bdb19481d1bc81b5a5b9d60921b60648201526084016104aa565b6003546040516308edbc9560e31b81526001600160a01b039091169063476de4a890610ae0908b908b908a90899089908990600401611c24565b600060405180830381600087803b158015610afa57600080fd5b505af1158015610b0e573d6000803e3d6000fd5b505050506000610b1e888861151b565b90506000610b2b8761153b565b6004549091506001600160a01b03166340c10f1930610b4a8a8d611c9a565b6040516001600160e01b031960e085901b1681526001600160a01b0390921660048301526024820152604401600060405180830381600087803b158015610b9057600080fd5b505af1158015610ba4573d6000803e3d6000fd5b50506004805460065460405163a9059cbb60e01b81526001600160a01b03918216938101939093526024830187905216925063a9059cbb91506044016020604051808303816000875af1158015610bff573d6000803e3d6000fd5b505050506040513d601f19601f82011682018060405250810190610c239190611bb2565b506004546001600160a01b031663a9059cbb87610c40858d611cad565b6040516001600160e01b031960e085901b1681526001600160a01b03909216600483015260248201526044016020604051808303816000875af1158015610c8b573d6000803e3d6000fd5b505050506040513d601f19601f82011682018060405250810190610caf9190611bb2565b506004805460085460405163a9059cbb60e01b81526001600160a01b039182169381019390935260248301849052169063a9059cbb906044016020604051808303816000875af1158015610d07573d6000803e3d6000fd5b505050506040513d601f19601f82011682018060405250810190610d2b9190611bb2565b506004546007546001600160a01b039182169163a9059cbb9116610d4f848b611cad565b6040516001600160e01b031960e085901b1681526001600160a01b03909216600483015260248201526044016020604051808303816000875af1158015610d9a573d6000803e3d6000fd5b505050506040513d601f19601f82011682018060405250810190610dbe9190611bb2565b50506001600255505050505050505050565b610dd8611555565b610de260006115af565b565b60009182526001602090815260408084206001600160a01b0393909316845291905290205460ff1690565b610e1a600033610de4565b610e365760405162461bcd60e51b81526004016104aa90611a50565b600980546001600160a01b0319166001600160a01b0392909216919091179055565b610e63600033610de4565b610e7f5760405162461bcd60e51b81526004016104aa90611a50565b600680546001600160a01b0319166001600160a01b0392909216919091179055565b610eac600033610de4565b610ec85760405162461bcd60e51b81526004016104aa90611a95565b6105267f9f2df0fed2c77648de5860a4cc508cd0818c85b8b8a1ab4ceeef8d981c8956a6826114b4565b60008281526001602081905260409091200154610f0e816114aa565b61092883836114b4565b6002805403610f395760405162461bcd60e51b81526004016104aa90611ad6565b6002805580610fa15760405162461bcd60e51b815260206004820152602e60248201527f436172626f6e5061746841646d696e3a2062757920616d6f756e74206d75737460448201526d206265206174206c65617374203160901b60648201526084016104aa565b600480546040516370a0823160e01b8152309281019290925282916001600160a01b03909116906370a0823190602401602060405180830381865afa158015610fee573d6000803e3d6000fd5b505050506040513d601f19601f820116820180604052508101906110129190611b0d565b10156110305760405162461bcd60e51b81526004016104aa90611b26565b600061103b826115ff565b60055490915081906001600160a01b03166370a08231336040516001600160e01b031960e084901b1681526001600160a01b039091166004820152602401602060405180830381865afa158015611096573d6000803e3d6000fd5b505050506040513d601f19601f820116820180604052508101906110ba9190611b0d565b10156111195760405162461bcd60e51b815260206004820152602860248201527f436172626f6e5061746841646d696e3a206e6f7420656e6f75676820737461626044820152673632903a37b5b2b760c11b60648201526084016104aa565b6005546001600160a01b03166323b872dd3360095460405160e084901b6001600160e01b03191681526001600160a01b03928316600482015291166024820152604481018490526064016020604051808303816000875af1158015611182573d6000803e3d6000fd5b505050506040513d601f19601f820116820180604052508101906111a69190611bb2565b506004546001600160a01b031663a9059cbb336040516001600160e01b031960e084901b1681526001600160a01b039091166004820152602481018590526044016020604051808303816000875af1158015611206573d6000803e3d6000fd5b505050506040513d601f19601f8201168201806040525081019061122a9190611bb2565b5050600160025550565b6009546001600160a01b0316336001600160a01b0316146112675760405162461bcd60e51b81526004016104aa90611b69565b60028054036112885760405162461bcd60e51b81526004016104aa90611ad6565b60028055806112f15760405162461bcd60e51b815260206004820152602f60248201527f436172626f6e5061746841646d696e3a2073656c6c20616d6f756e74206d757360448201526e74206265206174206c65617374203160881b60648201526084016104aa565b60045481906001600160a01b03166370a08231336040516001600160e01b031960e084901b1681526001600160a01b039091166004820152602401602060405180830381865afa158015611349573d6000803e3d6000fd5b505050506040513d601f19601f8201168201806040525081019061136d9190611b0d565b101561138b5760405162461bcd60e51b81526004016104aa90611b26565b600480546040516323b872dd60e01b81523392810192909252306024830152604482018390526001600160a01b0316906323b872dd906064016108b6565b6113d1611555565b6001600160a01b0381166114365760405162461bcd60e51b815260206004820152602660248201527f4f776e61626c653a206e6577206f776e657220697320746865207a65726f206160448201526564647265737360d01b60648201526084016104aa565b610526816115af565b6114498282610de4565b6109a75760008281526001602081815260408084206001600160a01b0386168086529252808420805460ff19169093179092559051339285917f2f8788117e7eff1d82e926ec794901d17c78024a50270940304540a733656f0d9190a45050565b610526813361161e565b6114be8282610de4565b156109a75760008281526001602090815260408083206001600160a01b0385168085529252808320805460ff1916905551339285917ff6391f5c32d9c69d2a47ea670b442974b53935d1edc7fd64eb21e047a839171b9190a45050565b60006103e861152a8385611cc0565b6115349190611cd7565b9392505050565b60006103e861154b603284611cc0565b61047d9190611cd7565b6000546001600160a01b03163314610de25760405162461bcd60e51b815260206004820181905260248201527f4f776e61626c653a2063616c6c6572206973206e6f7420746865206f776e657260448201526064016104aa565b600080546001600160a01b038381166001600160a01b0319831681178455604051919092169283917f8be0079c531659141344cd1fd0a4f28419497f9722a3daafe3b4186f6b6457e09190a35050565b600061160c601e83611cc0565b61047d90670de0b6b3a7640000611cc0565b6116288282610de4565b6109a757611640816001600160a01b03166014611682565b61164b836020611682565b60405160200161165c929190611cf9565b60408051601f198184030181529082905262461bcd60e51b82526104aa91600401611d6e565b60606000611691836002611cc0565b61169c906002611c9a565b67ffffffffffffffff8111156116b4576116b46118e6565b6040519080825280601f01601f1916602001820160405280156116de576020820181803683370190505b509050600360fc1b816000815181106116f9576116f9611d81565b60200101906001600160f81b031916908160001a905350600f60fb1b8160018151811061172857611728611d81565b60200101906001600160f81b031916908160001a905350600061174c846002611cc0565b611757906001611c9a565b90505b60018111156117cf576f181899199a1a9b1b9c1cb0b131b232b360811b85600f166010811061178b5761178b611d81565b1a60f81b8282815181106117a1576117a1611d81565b60200101906001600160f81b031916908160001a90535060049490941c936117c881611d97565b905061175a565b5083156115345760405162461bcd60e51b815260206004820181905260248201527f537472696e67733a20686578206c656e67746820696e73756666696369656e7460448201526064016104aa565b60006020828403121561183057600080fd5b81356001600160e01b03198116811461153457600080fd5b80356001600160a01b038116811461185f57600080fd5b919050565b60006020828403121561187657600080fd5b61153482611848565b60006020828403121561189157600080fd5b5035919050565b600080604083850312156118ab57600080fd5b50508035926020909101359150565b600080604083850312156118cd57600080fd5b823591506118dd60208401611848565b90509250929050565b634e487b7160e01b600052604160045260246000fd5b600082601f83011261190d57600080fd5b813567ffffffffffffffff80821115611928576119286118e6565b604051601f8301601f19908116603f01168101908282118183101715611950576119506118e6565b8160405283815286602085880101111561196957600080fd5b836020870160208301376000602085830101528094505050505092915050565b600080600080600080600080610100898b0312156119a657600080fd5b6119af89611848565b97506020890135965060408901359550606089013594506119d260808a01611848565b935060a089013567ffffffffffffffff808211156119ef57600080fd5b6119fb8c838d016118fc565b945060c08b0135915080821115611a1157600080fd5b611a1d8c838d016118fc565b935060e08b0135915080821115611a3357600080fd5b50611a408b828c016118fc565b9150509295985092959890939650565b60208082526025908201527f436172626f6e5061746841646d696e3a206d75737420686176652061646d696e60408201526420726f6c6560d81b606082015260800190565b60208082526021908201527f436172626f6e5061746841646d696e3a206d75737420626520616e2061646d696040820152603760f91b606082015260800190565b6020808252601f908201527f5265656e7472616e637947756172643a207265656e7472616e742063616c6c00604082015260600190565b600060208284031215611b1f57600080fd5b5051919050565b60208082526023908201527f436172626f6e5061746841646d696e3a206e6f7420656e6f7567682062616c616040820152626e636560e81b606082015260800190565b60208082526029908201527f436172626f6e5061746841646d696e3a2063616c6c6572206973206e6f74207460408201526834329039b2b63632b960b91b606082015260800190565b600060208284031215611bc457600080fd5b8151801515811461153457600080fd5b60005b83811015611bef578181015183820152602001611bd7565b50506000910152565b60008151808452611c10816020860160208601611bd4565b601f01601f19169290920160200192915050565b60018060a01b038716815285602082015284604082015260c060608201526000611c5160c0830186611bf8565b8281036080840152611c638186611bf8565b905082810360a0840152611c778185611bf8565b9998505050505050505050565b634e487b7160e01b600052601160045260246000fd5b8082018082111561047d5761047d611c84565b8181038181111561047d5761047d611c84565b808202811582820484141761047d5761047d611c84565b600082611cf457634e487b7160e01b600052601260045260246000fd5b500490565b7f416363657373436f6e74726f6c3a206163636f756e7420000000000000000000815260008351611d31816017850160208801611bd4565b7001034b99036b4b9b9b4b733903937b6329607d1b6017918401918201528351611d62816028840160208801611bd4565b01602801949350505050565b6020815260006115346020830184611bf8565b634e487b7160e01b600052603260045260246000fd5b600081611da657611da6611c84565b50600019019056fea2646970667358221220a1d23be3530ea434e80d00a4f5b1df47e0117731d320d64998847a710c49288764736f6c63430008110033",
  "linkReferences": {},
  "deployedLinkReferences": {}
}